{
  "_format": "hh-sol-artifact-1",
  "contractName": "CrowdFunding",
  "sourceName": "contracts/crowdfunding.sol",
  "abi": [
    {
      "inputs": [
        {
          "internalType": "address",
          "name": "_owner",
          "type": "address"
        },
        {
          "internalType": "string",
          "name": "_title",
          "type": "string"
        },
        {
          "internalType": "string",
          "name": "_description",
          "type": "string"
        },
        {
          "internalType": "uint256",
          "name": "_target",
          "type": "uint256"
        },
        {
          "internalType": "uint256",
          "name": "_deadline",
          "type": "uint256"
        }
      ],
      "name": "createCampaign",
      "outputs": [
        {
          "internalType": "uint256",
          "name": "",
          "type": "uint256"
        }
      ],
      "stateMutability": "nonpayable",
      "type": "function"
    },
    {
      "inputs": [
        {
          "internalType": "uint256",
          "name": "_id",
          "type": "uint256"
        }
      ],
      "name": "donateToCampaign",
      "outputs": [],
      "stateMutability": "payable",
      "type": "function"
    },
    {
      "inputs": [],
      "name": "getCampaigns",
      "outputs": [
        {
          "components": [
            {
              "internalType": "address",
              "name": "owner",
              "type": "address"
            },
            {
              "internalType": "string",
              "name": "title",
              "type": "string"
            },
            {
              "internalType": "string",
              "name": "description",
              "type": "string"
            },
            {
              "internalType": "uint256",
              "name": "target",
              "type": "uint256"
            },
            {
              "internalType": "uint256",
              "name": "deadline",
              "type": "uint256"
            },
            {
              "internalType": "uint256",
              "name": "amountCollected",
              "type": "uint256"
            },
            {
              "internalType": "address[]",
              "name": "donators",
              "type": "address[]"
            },
            {
              "internalType": "uint256[]",
              "name": "donations",
              "type": "uint256[]"
            }
          ],
          "internalType": "struct CrowdFunding.Campaign[]",
          "name": "",
          "type": "tuple[]"
        }
      ],
      "stateMutability": "view",
      "type": "function"
    },
    {
      "inputs": [
        {
          "internalType": "uint256",
          "name": "_id",
          "type": "uint256"
        }
      ],
      "name": "getDonators",
      "outputs": [
        {
          "internalType": "address[]",
          "name": "",
          "type": "address[]"
        },
        {
          "internalType": "uint256[]",
          "name": "",
          "type": "uint256[]"
        }
      ],
      "stateMutability": "view",
      "type": "function"
    },
    {
      "inputs": [],
      "name": "numberOfCampaigns",
      "outputs": [
        {
          "internalType": "uint256",
          "name": "",
          "type": "uint256"
        }
      ],
      "stateMutability": "view",
      "type": "function"
    }
  ],
  "bytecode": "0x6080604052600060015534801561001557600080fd5b5061151b806100256000396000f3fe60806040526004361061004a5760003560e01c8063075843c31461004f57806307ca140d1461008c5780630fa91fa9146100b757806342a4fda8146100f5578063a6b0363314610111575b600080fd5b34801561005b57600080fd5b5061007660048036038101906100719190610a4d565b61013c565b6040516100839190610b0f565b60405180910390f35b34801561009857600080fd5b506100a1610250565b6040516100ae9190610b0f565b60405180910390f35b3480156100c357600080fd5b506100de60048036038101906100d99190610b2a565b610256565b6040516100ec929190610cd3565b60405180910390f35b61010f600480360381019061010a9190610b2a565b610366565b005b34801561011d57600080fd5b506101266104c6565b6040516101339190610fee565b60405180910390f35b600080600080600154815260200190815260200160002090504281600401541061019b576040517f08c379a000000000000000000000000000000000000000000000000000000000815260040161019290611093565b60405180910390fd5b868160000160006101000a81548173ffffffffffffffffffffffffffffffffffffffff021916908373ffffffffffffffffffffffffffffffffffffffff160217905550858160010190816101ef91906112bf565b508481600201908161020191906112bf565b508381600301819055508281600401819055506000816005018190555060016000815480929190610231906113c0565b9190505550600180546102449190611408565b91505095945050505050565b60015481565b6060806000808481526020019081526020016000206006016000808581526020019081526020016000206007018180548060200260200160405190810160405280929190818152602001828054801561030457602002820191906000526020600020905b8160009054906101000a900473ffffffffffffffffffffffffffffffffffffffff1673ffffffffffffffffffffffffffffffffffffffff16815260200190600101908083116102ba575b505050505091508080548060200260200160405190810160405280929190818152602001828054801561035657602002820191906000526020600020905b815481526020019060010190808311610342575b5050505050905091509150915091565b60003490506000806000848152602001908152602001600020905080600601339080600181540180825580915050600190039060005260206000200160009091909190916101000a81548173ffffffffffffffffffffffffffffffffffffffff021916908373ffffffffffffffffffffffffffffffffffffffff1602179055508060070182908060018154018082558091505060019003906000526020600020016000909190919091505560008160000160009054906101000a900473ffffffffffffffffffffffffffffffffffffffff1673ffffffffffffffffffffffffffffffffffffffff168360405161045b9061146d565b60006040518083038185875af1925050503d8060008114610498576040519150601f19603f3d011682016040523d82523d6000602084013e61049d565b606091505b5050905080156104c0578282600501546104b79190611482565b82600501819055505b50505050565b6060600060015467ffffffffffffffff8111156104e6576104e56108ec565b5b60405190808252806020026020018201604052801561051f57816020015b61050c610804565b8152602001906001900390816105045790505b50905060005b6001548110156107fc576000806000838152602001908152602001600020905080604051806101000160405290816000820160009054906101000a900473ffffffffffffffffffffffffffffffffffffffff1673ffffffffffffffffffffffffffffffffffffffff1673ffffffffffffffffffffffffffffffffffffffff1681526020016001820180546105b8906110e2565b80601f01602080910402602001604051908101604052809291908181526020018280546105e4906110e2565b80156106315780601f1061060657610100808354040283529160200191610631565b820191906000526020600020905b81548152906001019060200180831161061457829003601f168201915b5050505050815260200160028201805461064a906110e2565b80601f0160208091040260200160405190810160405280929190818152602001828054610676906110e2565b80156106c35780601f10610698576101008083540402835291602001916106c3565b820191906000526020600020905b8154815290600101906020018083116106a657829003601f168201915b505050505081526020016003820154815260200160048201548152602001600582015481526020016006820180548060200260200160405190810160405280929190818152602001828054801561076f57602002820191906000526020600020905b8160009054906101000a900473ffffffffffffffffffffffffffffffffffffffff1673ffffffffffffffffffffffffffffffffffffffff1681526020019060010190808311610725575b50505050508152602001600782018054806020026020016040519081016040528092919081815260200182805480156107c757602002820191906000526020600020905b8154815260200190600101908083116107b3575b5050505050815250508383815181106107e3576107e26114b6565b5b6020026020010181905250508080600101915050610525565b508091505090565b604051806101000160405280600073ffffffffffffffffffffffffffffffffffffffff168152602001606081526020016060815260200160008152602001600081526020016000815260200160608152602001606081525090565b6000604051905090565b600080fd5b600080fd5b600073ffffffffffffffffffffffffffffffffffffffff82169050919050565b600061089e82610873565b9050919050565b6108ae81610893565b81146108b957600080fd5b50565b6000813590506108cb816108a5565b92915050565b600080fd5b600080fd5b6000601f19601f8301169050919050565b7f4e487b7100000000000000000000000000000000000000000000000000000000600052604160045260246000fd5b610924826108db565b810181811067ffffffffffffffff82111715610943576109426108ec565b5b80604052505050565b600061095661085f565b9050610962828261091b565b919050565b600067ffffffffffffffff821115610982576109816108ec565b5b61098b826108db565b9050602081019050919050565b82818337600083830152505050565b60006109ba6109b584610967565b61094c565b9050828152602081018484840111156109d6576109d56108d6565b5b6109e1848285610998565b509392505050565b600082601f8301126109fe576109fd6108d1565b5b8135610a0e8482602086016109a7565b91505092915050565b6000819050919050565b610a2a81610a17565b8114610a3557600080fd5b50565b600081359050610a4781610a21565b92915050565b600080600080600060a08688031215610a6957610a68610869565b5b6000610a77888289016108bc565b955050602086013567ffffffffffffffff811115610a9857610a9761086e565b5b610aa4888289016109e9565b945050604086013567ffffffffffffffff811115610ac557610ac461086e565b5b610ad1888289016109e9565b9350506060610ae288828901610a38565b9250506080610af388828901610a38565b9150509295509295909350565b610b0981610a17565b82525050565b6000602082019050610b246000830184610b00565b92915050565b600060208284031215610b4057610b3f610869565b5b6000610b4e84828501610a38565b91505092915050565b600081519050919050565b600082825260208201905092915050565b6000819050602082019050919050565b610b8c81610893565b82525050565b6000610b9e8383610b83565b60208301905092915050565b6000602082019050919050565b6000610bc282610b57565b610bcc8185610b62565b9350610bd783610b73565b8060005b83811015610c08578151610bef8882610b92565b9750610bfa83610baa565b925050600181019050610bdb565b5085935050505092915050565b600081519050919050565b600082825260208201905092915050565b6000819050602082019050919050565b610c4a81610a17565b82525050565b6000610c5c8383610c41565b60208301905092915050565b6000602082019050919050565b6000610c8082610c15565b610c8a8185610c20565b9350610c9583610c31565b8060005b83811015610cc6578151610cad8882610c50565b9750610cb883610c68565b925050600181019050610c99565b5085935050505092915050565b60006040820190508181036000830152610ced8185610bb7565b90508181036020830152610d018184610c75565b90509392505050565b600081519050919050565b600082825260208201905092915050565b6000819050602082019050919050565b600081519050919050565b600082825260208201905092915050565b60005b83811015610d70578082015181840152602081019050610d55565b60008484015250505050565b6000610d8782610d36565b610d918185610d41565b9350610da1818560208601610d52565b610daa816108db565b840191505092915050565b600082825260208201905092915050565b6000610dd182610b57565b610ddb8185610db5565b9350610de683610b73565b8060005b83811015610e17578151610dfe8882610b92565b9750610e0983610baa565b925050600181019050610dea565b5085935050505092915050565b600082825260208201905092915050565b6000610e4082610c15565b610e4a8185610e24565b9350610e5583610c31565b8060005b83811015610e86578151610e6d8882610c50565b9750610e7883610c68565b925050600181019050610e59565b5085935050505092915050565b600061010083016000830151610eac6000860182610b83565b5060208301518482036020860152610ec48282610d7c565b91505060408301518482036040860152610ede8282610d7c565b9150506060830151610ef36060860182610c41565b506080830151610f066080860182610c41565b5060a0830151610f1960a0860182610c41565b5060c083015184820360c0860152610f318282610dc6565b91505060e083015184820360e0860152610f4b8282610e35565b9150508091505092915050565b6000610f648383610e93565b905092915050565b6000602082019050919050565b6000610f8482610d0a565b610f8e8185610d15565b935083602082028501610fa085610d26565b8060005b85811015610fdc5784840389528151610fbd8582610f58565b9450610fc883610f6c565b925060208a01995050600181019050610fa4565b50829750879550505050505092915050565b600060208201905081810360008301526110088184610f79565b905092915050565b600082825260208201905092915050565b7f54686520646561646c696e652073686f756c642062652061206461746520696e60008201527f2074686520667574757265000000000000000000000000000000000000000000602082015250565b600061107d602b83611010565b915061108882611021565b604082019050919050565b600060208201905081810360008301526110ac81611070565b9050919050565b7f4e487b7100000000000000000000000000000000000000000000000000000000600052602260045260246000fd5b600060028204905060018216806110fa57607f821691505b60208210810361110d5761110c6110b3565b5b50919050565b60008190508160005260206000209050919050565b60006020601f8301049050919050565b600082821b905092915050565b6000600883026111757fffffffffffffffffffffffffffffffffffffffffffffffffffffffffffffffff82611138565b61117f8683611138565b95508019841693508086168417925050509392505050565b6000819050919050565b60006111bc6111b76111b284610a17565b611197565b610a17565b9050919050565b6000819050919050565b6111d6836111a1565b6111ea6111e2826111c3565b848454611145565b825550505050565b600090565b6111ff6111f2565b61120a8184846111cd565b505050565b5b8181101561122e576112236000826111f7565b600181019050611210565b5050565b601f8211156112735761124481611113565b61124d84611128565b8101602085101561125c578190505b61127061126885611128565b83018261120f565b50505b505050565b600082821c905092915050565b600061129660001984600802611278565b1980831691505092915050565b60006112af8383611285565b9150826002028217905092915050565b6112c882610d36565b67ffffffffffffffff8111156112e1576112e06108ec565b5b6112eb82546110e2565b6112f6828285611232565b600060209050601f8311600181146113295760008415611317578287015190505b61132185826112a3565b865550611389565b601f19841661133786611113565b60005b8281101561135f5784890151825560018201915060208501945060208101905061133a565b8683101561137c5784890151611378601f891682611285565b8355505b6001600288020188555050505b505050505050565b7f4e487b7100000000000000000000000000000000000000000000000000000000600052601160045260246000fd5b60006113cb82610a17565b91507fffffffffffffffffffffffffffffffffffffffffffffffffffffffffffffffff82036113fd576113fc611391565b5b600182019050919050565b600061141382610a17565b915061141e83610a17565b925082820390508181111561143657611435611391565b5b92915050565b600081905092915050565b50565b600061145760008361143c565b915061146282611447565b600082019050919050565b60006114788261144a565b9150819050919050565b600061148d82610a17565b915061149883610a17565b92508282019050808211156114b0576114af611391565b5b92915050565b7f4e487b7100000000000000000000000000000000000000000000000000000000600052603260045260246000fdfea264697066735822122032a832d066f403623fdbeb5b14e6ddadd949583834f70a441a7ff1e0ae6a650564736f6c63430008180033",
  "linkReferences": {},
  "deployedLinkReferences": {}
}